{
  "transactions": [
    {
      "hash": "0x64ce8f167a6e9a1acb5c96983a3c7cb2bb872b5fb1f9f354f079372991ea7cfe",
      "transactionType": "CALL",
      "contractName": null,
      "contractAddress": "0x89003bf91d4ab54ef093f13f513b9d99cb808832",
      "function": "setLimitOrderProtocol(address)",
      "arguments": [
        "0xE5638Bce0050975aE6f0f475B8d399C929Fb0C42"
      ],
      "transaction": {
        "from": "0x9e446e694d75fe9a6010a4389486c47cfec1d918",
        "to": "0x89003bf91d4ab54ef093f13f513b9d99cb808832",
        "gas": "0xfe08",
        "value": "0x0",
        "input": "0x47723373000000000000000000000000e5638bce0050975ae6f0f475b8d399c929fb0c42",
        "nonce": "0x4b",
        "chainId": "0xaa36a7"
      },
      "additionalContracts": [],
      "isFixedGasLimit": false
    },
    {
      "hash": "0x3e71684d1e4ca6dd3d8009a93f1277e1b773a95096295b2f8befc9543da7cda0",
      "transactionType": "CALL",
      "contractName": null,
      "contractAddress": "0x2a08aea944ac4813eb9ff2621c417dd3b1f14a6a",
      "function": "setLimitOrderProtocol(address)",
      "arguments": [
        "0xE5638Bce0050975aE6f0f475B8d399C929Fb0C42"
      ],
      "transaction": {
        "from": "0x9e446e694d75fe9a6010a4389486c47cfec1d918",
        "to": "0x2a08aea944ac4813eb9ff2621c417dd3b1f14a6a",
        "gas": "0xefe5",
        "value": "0x0",
        "input": "0x47723373000000000000000000000000e5638bce0050975ae6f0f475b8d399c929fb0c42",
        "nonce": "0x4c",
        "chainId": "0xaa36a7"
      },
      "additionalContracts": [],
      "isFixedGasLimit": false
    }
  ],
  "receipts": [
    {
      "status": "0x1",
      "cumulativeGasUsed": "0x15f5136",
      "logs": [],
      "logsBloom": "0x00000000000000000000000000000000000000000000000000000000000000000000000000000000000000000000000000000000000000000000000000000000000000000000000000000000000000000000000000000000000000000000000000000000000000000000000000000000000000000000000000000000000000000000000000000000000000000000000000000000000000000000000000000000000000000000000000000000000000000000000000000000000000000000000000000000000000000000000000000000000000000000000000000000000000000000000000000000000000000000000000000000000000000000000000000000",
      "type": "0x2",
      "transactionHash": "0x64ce8f167a6e9a1acb5c96983a3c7cb2bb872b5fb1f9f354f079372991ea7cfe",
      "transactionIndex": "0x87",
      "blockHash": "0xddb83199c32a266dd8ed74ef2b22d80e8999bf91893d66e4176b4936921efb64",
      "blockNumber": "0x87d8e3",
      "gasUsed": "0xadb3",
      "effectiveGasPrice": "0x230ad6",
      "from": "0x9e446e694d75fe9a6010a4389486c47cfec1d918",
      "to": "0x89003bf91d4ab54ef093f13f513b9d99cb808832",
      "contractAddress": null
    },
    {
      "status": "0x1",
      "cumulativeGasUsed": "0x2c3e33e",
      "logs": [],
      "logsBloom": "0x00000000000000000000000000000000000000000000000000000000000000000000000000000000000000000000000000000000000000000000000000000000000000000000000000000000000000000000000000000000000000000000000000000000000000000000000000000000000000000000000000000000000000000000000000000000000000000000000000000000000000000000000000000000000000000000000000000000000000000000000000000000000000000000000000000000000000000000000000000000000000000000000000000000000000000000000000000000000000000000000000000000000000000000000000000000",
      "type": "0x2",
      "transactionHash": "0x3e71684d1e4ca6dd3d8009a93f1277e1b773a95096295b2f8befc9543da7cda0",
      "transactionIndex": "0x105",
      "blockHash": "0xa6205c3a266da858d0068c13dc7300995d06f88804be79f58b15310b8e72ae82",
      "blockNumber": "0x87d8e7",
      "gasUsed": "0xadaf",
      "effectiveGasPrice": "0x232d58",
      "from": "0x9e446e694d75fe9a6010a4389486c47cfec1d918",
      "to": "0x2a08aea944ac4813eb9ff2621c417dd3b1f14a6a",
      "contractAddress": null
    }
  ],
  "libraries": [],
  "pending": [],
  "returns": {},
  "timestamp": 1754213691,
  "chain": 11155111,
  "commit": "d37149c"
}