{
  "transactions": [
    {
      "hash": "0x5fe183c8e78d978efa90e467ed7132792a481d4842d51ccc9052fca5a5f20ff5",
      "transactionType": "CALL",
      "contractName": null,
      "contractAddress": "0xce8961a85fe2faf4fed19a790f3f3c4a8d20ef0d",
      "function": "setLimitOrderProtocol(address)",
      "arguments": [
        "0xbB429b3718697933dE85201403b77e5c2eA66794"
      ],
      "transaction": {
        "from": "0x9e446e694d75fe9a6010a4389486c47cfec1d918",
        "to": "0xce8961a85fe2faf4fed19a790f3f3c4a8d20ef0d",
        "gas": "0xeffb",
        "value": "0x0",
        "input": "0x47723373000000000000000000000000bb429b3718697933de85201403b77e5c2ea66794",
        "nonce": "0x43",
        "chainId": "0xaa36a7"
      },
      "additionalContracts": [],
      "isFixedGasLimit": false
    },
    {
      "hash": "0x453a5e30ccc0dbca089a68d023e7630ec9a7864b35f0e28f3eacfafdd4934522",
      "transactionType": "CALL",
      "contractName": null,
      "contractAddress": "0xa6f654ded8ebc7ed1bfc49a40e399e5ba6ac8b22",
      "function": "setLimitOrderProtocol(address)",
      "arguments": [
        "0xbB429b3718697933dE85201403b77e5c2eA66794"
      ],
      "transaction": {
        "from": "0x9e446e694d75fe9a6010a4389486c47cfec1d918",
        "to": "0xa6f654ded8ebc7ed1bfc49a40e399e5ba6ac8b22",
        "gas": "0xfe14",
        "value": "0x0",
        "input": "0x47723373000000000000000000000000bb429b3718697933de85201403b77e5c2ea66794",
        "nonce": "0x44",
        "chainId": "0xaa36a7"
      },
      "additionalContracts": [],
      "isFixedGasLimit": false
    }
  ],
  "receipts": [
    {
      "status": "0x1",
      "cumulativeGasUsed": "0x144e83a",
      "logs": [],
      "logsBloom": "0x00000000000000000000000000000000000000000000000000000000000000000000000000000000000000000000000000000000000000000000000000000000000000000000000000000000000000000000000000000000000000000000000000000000000000000000000000000000000000000000000000000000000000000000000000000000000000000000000000000000000000000000000000000000000000000000000000000000000000000000000000000000000000000000000000000000000000000000000000000000000000000000000000000000000000000000000000000000000000000000000000000000000000000000000000000000",
      "type": "0x2",
      "transactionHash": "0x5fe183c8e78d978efa90e467ed7132792a481d4842d51ccc9052fca5a5f20ff5",
      "transactionIndex": "0xbf",
      "blockHash": "0xaf18f6faff83f2a0a82f59fa9bc533216477f788c791f0aee1bcfe035d3ae730",
      "blockNumber": "0x87d782",
      "gasUsed": "0xadbf",
      "effectiveGasPrice": "0x2f9496",
      "from": "0x9e446e694d75fe9a6010a4389486c47cfec1d918",
      "to": "0xce8961a85fe2faf4fed19a790f3f3c4a8d20ef0d",
      "contractAddress": null
    },
    {
      "status": "0x1",
      "cumulativeGasUsed": "0xbe1bb3",
      "logs": [],
      "logsBloom": "0x00000000000000000000000000000000000000000000000000000000000000000000000000000000000000000000000000000000000000000000000000000000000000000000000000000000000000000000000000000000000000000000000000000000000000000000000000000000000000000000000000000000000000000000000000000000000000000000000000000000000000000000000000000000000000000000000000000000000000000000000000000000000000000000000000000000000000000000000000000000000000000000000000000000000000000000000000000000000000000000000000000000000000000000000000000000",
      "type": "0x2",
      "transactionHash": "0x453a5e30ccc0dbca089a68d023e7630ec9a7864b35f0e28f3eacfafdd4934522",
      "transactionIndex": "0x85",
      "blockHash": "0xbe333cd925c0e1ed1387d354150ec030ad369136828e805bf2eb3b0fcbb46868",
      "blockNumber": "0x87d788",
      "gasUsed": "0xadbb",
      "effectiveGasPrice": "0x2e7fd0",
      "from": "0x9e446e694d75fe9a6010a4389486c47cfec1d918",
      "to": "0xa6f654ded8ebc7ed1bfc49a40e399e5ba6ac8b22",
      "contractAddress": null
    }
  ],
  "libraries": [],
  "pending": [],
  "returns": {},
  "timestamp": 1754209455,
  "chain": 11155111,
  "commit": "d37149c"
}